:020000020000FC
:0200000013C02B
:040010000C946B00E1
:100024000C945A000FE514E00DBF1EBF02E003BF9D
:1000340001E409BF00EA07BB03E00BBB0FEF04BBFD
:100044002227662777273FEF4FEF5FE0789425BBA1
:1000540020FD0C943E0021FD0C944300303029F423
:10006400216000E053950C944800403081F72260F1
:1000740001E05A950C9448003F3F49F72E7F0C94B9
:1000840029004F3F21F72D7F0C942900652F7727F6
:100094000695679577950695679577950E94540020
:1000A4000C94290002E005BD0895002705BD0895BC
:1000B4000F931F930FB70F9309B30370102F079576
:1000C40037951695179547950F910FBF1F910F916F
:1000D40018950F931F930FB70F9380FD0AC067FD08
:1000E40003C0C5980C947700C59AC798771F661FFC
:1000F40001C0C79A8395853118F088270E9457005C
:0A0104000F910FBF1F910F91189586
:00000001FF
